{
  "address": "0x04cC4559f6E9464D54A154A16c31dEf77908Ff1A",
  "abi": [
    {
      "inputs": [
        {
          "internalType": "address",
          "name": "s_pricefeedAddress",
          "type": "address"
        }
      ],
      "stateMutability": "nonpayable",
      "type": "constructor"
    },
    {
      "inputs": [],
      "name": "NotOwner",
      "type": "error"
    },
    {
      "stateMutability": "payable",
      "type": "fallback"
    },
    {
      "inputs": [],
      "name": "MINIMUM_USD",
      "outputs": [
        {
          "internalType": "uint256",
          "name": "",
          "type": "uint256"
        }
      ],
      "stateMutability": "view",
      "type": "function"
    },
    {
      "inputs": [],
      "name": "fund",
      "outputs": [],
      "stateMutability": "payable",
      "type": "function"
    },
    {
      "inputs": [],
      "name": "i_owner",
      "outputs": [
        {
          "internalType": "address",
          "name": "",
          "type": "address"
        }
      ],
      "stateMutability": "view",
      "type": "function"
    },
    {
      "inputs": [
        {
          "internalType": "address",
          "name": "",
          "type": "address"
        }
      ],
      "name": "s_addressToAmountFunded",
      "outputs": [
        {
          "internalType": "uint256",
          "name": "",
          "type": "uint256"
        }
      ],
      "stateMutability": "view",
      "type": "function"
    },
    {
      "inputs": [
        {
          "internalType": "uint256",
          "name": "",
          "type": "uint256"
        }
      ],
      "name": "s_funders",
      "outputs": [
        {
          "internalType": "address",
          "name": "",
          "type": "address"
        }
      ],
      "stateMutability": "view",
      "type": "function"
    },
    {
      "inputs": [],
      "name": "s_pricefeed",
      "outputs": [
        {
          "internalType": "contract AggregatorV3Interface",
          "name": "",
          "type": "address"
        }
      ],
      "stateMutability": "view",
      "type": "function"
    },
    {
      "inputs": [],
      "name": "withdraw",
      "outputs": [],
      "stateMutability": "nonpayable",
      "type": "function"
    },
    {
      "stateMutability": "payable",
      "type": "receive"
    }
  ],
  "transactionHash": "0x780a6fa2dcccd9a085cbdb2a1116f649827625a74d99d7b07fccbb4635b8796c",
  "args": [
    "0x694AA1769357215DE4FAC081bf1f309aDC325306"
  ],
  "numDeployments": 1,
  "solcInputHash": "76e1c2897cee2ba3d8739b4503c30879",
  "bytecode": "0x608060405234801561001057600080fd5b50604051610ea5380380610ea58339818101604052810190610032919061011d565b33600260006101000a81548173ffffffffffffffffffffffffffffffffffffffff021916908373ffffffffffffffffffffffffffffffffffffffff16021790555080600360006101000a81548173ffffffffffffffffffffffffffffffffffffffff021916908373ffffffffffffffffffffffffffffffffffffffff1602179055505061014a565b600080fd5b600073ffffffffffffffffffffffffffffffffffffffff82169050919050565b60006100ea826100bf565b9050919050565b6100fa816100df565b811461010557600080fd5b50565b600081519050610117816100f1565b92915050565b600060208284031215610133576101326100ba565b5b600061014184828501610108565b91505092915050565b610d4c806101596000396000f3fe6080604052600436106100745760003560e01c80636b69a5921161004e5780636b69a5921461011e578063b60d428814610149578063d30ce74614610153578063dba6335f1461017e57610083565b80631bf6132d1461008d5780633ccfd60b146100ca57806354861af7146100e157610083565b36610083576100816101a9565b005b61008b6101a9565b005b34801561009957600080fd5b506100b460048036038101906100af91906107a6565b6102e3565b6040516100c191906107ec565b60405180910390f35b3480156100d657600080fd5b506100df6102fb565b005b3480156100ed57600080fd5b5061010860048036038101906101039190610833565b610537565b604051610115919061086f565b60405180910390f35b34801561012a57600080fd5b50610133610576565b60405161014091906107ec565b60405180910390f35b6101516101a9565b005b34801561015f57600080fd5b50610168610583565b60405161017591906108e9565b60405180910390f35b34801561018a57600080fd5b506101936105a9565b6040516101a0919061086f565b60405180910390f35b6802b5e3af16b18800006101e8600360009054906101000a900473ffffffffffffffffffffffffffffffffffffffff16346105cf90919063ffffffff16565b1015610229576040517f08c379a000000000000000000000000000000000000000000000000000000000815260040161022090610961565b60405180910390fd5b346000803373ffffffffffffffffffffffffffffffffffffffff1673ffffffffffffffffffffffffffffffffffffffff168152602001908152602001600020600082825461027791906109b0565b925050819055506001339080600181540180825580915050600190039060005260206000200160009091909190916101000a81548173ffffffffffffffffffffffffffffffffffffffff021916908373ffffffffffffffffffffffffffffffffffffffff160217905550565b60006020528060005260406000206000915090505481565b600260009054906101000a900473ffffffffffffffffffffffffffffffffffffffff1673ffffffffffffffffffffffffffffffffffffffff163373ffffffffffffffffffffffffffffffffffffffff1614610382576040517f30cd747100000000000000000000000000000000000000000000000000000000815260040160405180910390fd5b60005b600180549050811015610427576000600182815481106103a8576103a76109e4565b5b9060005260206000200160009054906101000a900473ffffffffffffffffffffffffffffffffffffffff16905060008060008373ffffffffffffffffffffffffffffffffffffffff1673ffffffffffffffffffffffffffffffffffffffff16815260200190815260200160002081905550508080600101915050610385565b50600067ffffffffffffffff81111561044357610442610a13565b5b6040519080825280602002602001820160405280156104715781602001602082028036833780820191505090505b506001908051906020019061048792919061069c565b5060003373ffffffffffffffffffffffffffffffffffffffff16476040516104ae90610a73565b60006040518083038185875af1925050503d80600081146104eb576040519150601f19603f3d011682016040523d82523d6000602084013e6104f0565b606091505b5050905080610534576040517f08c379a000000000000000000000000000000000000000000000000000000000815260040161052b90610ad4565b60405180910390fd5b50565b6001818154811061054757600080fd5b906000526020600020016000915054906101000a900473ffffffffffffffffffffffffffffffffffffffff1681565b6802b5e3af16b188000081565b600360009054906101000a900473ffffffffffffffffffffffffffffffffffffffff1681565b600260009054906101000a900473ffffffffffffffffffffffffffffffffffffffff1681565b6000806105db8361060b565b90506000670de0b6b3a764000085836105f49190610af4565b6105fe9190610b65565b9050809250505092915050565b6000808273ffffffffffffffffffffffffffffffffffffffff1663feaf968c6040518163ffffffff1660e01b815260040160a060405180830381865afa158015610659573d6000803e3d6000fd5b505050506040513d601f19601f8201168201806040525081019061067d9190610c23565b5050509150506402540be400816106949190610c9e565b915050919050565b828054828255906000526020600020908101928215610715579160200282015b828111156107145782518260006101000a81548173ffffffffffffffffffffffffffffffffffffffff021916908373ffffffffffffffffffffffffffffffffffffffff160217905550916020019190600101906106bc565b5b5090506107229190610726565b5090565b5b8082111561073f576000816000905550600101610727565b5090565b600080fd5b600073ffffffffffffffffffffffffffffffffffffffff82169050919050565b600061077382610748565b9050919050565b61078381610768565b811461078e57600080fd5b50565b6000813590506107a08161077a565b92915050565b6000602082840312156107bc576107bb610743565b5b60006107ca84828501610791565b91505092915050565b6000819050919050565b6107e6816107d3565b82525050565b600060208201905061080160008301846107dd565b92915050565b610810816107d3565b811461081b57600080fd5b50565b60008135905061082d81610807565b92915050565b60006020828403121561084957610848610743565b5b60006108578482850161081e565b91505092915050565b61086981610768565b82525050565b60006020820190506108846000830184610860565b92915050565b6000819050919050565b60006108af6108aa6108a584610748565b61088a565b610748565b9050919050565b60006108c182610894565b9050919050565b60006108d3826108b6565b9050919050565b6108e3816108c8565b82525050565b60006020820190506108fe60008301846108da565b92915050565b600082825260208201905092915050565b7f596f75206e65656420746f207370656e64206d6f726520455448210000000000600082015250565b600061094b601b83610904565b915061095682610915565b602082019050919050565b6000602082019050818103600083015261097a8161093e565b9050919050565b7f4e487b7100000000000000000000000000000000000000000000000000000000600052601160045260246000fd5b60006109bb826107d3565b91506109c6836107d3565b92508282019050808211156109de576109dd610981565b5b92915050565b7f4e487b7100000000000000000000000000000000000000000000000000000000600052603260045260246000fd5b7f4e487b7100000000000000000000000000000000000000000000000000000000600052604160045260246000fd5b600081905092915050565b50565b6000610a5d600083610a42565b9150610a6882610a4d565b600082019050919050565b6000610a7e82610a50565b9150819050919050565b7f43616c6c206661696c6564000000000000000000000000000000000000000000600082015250565b6000610abe600b83610904565b9150610ac982610a88565b602082019050919050565b60006020820190508181036000830152610aed81610ab1565b9050919050565b6000610aff826107d3565b9150610b0a836107d3565b9250828202610b18816107d3565b91508282048414831517610b2f57610b2e610981565b5b5092915050565b7f4e487b7100000000000000000000000000000000000000000000000000000000600052601260045260246000fd5b6000610b70826107d3565b9150610b7b836107d3565b925082610b8b57610b8a610b36565b5b828204905092915050565b600069ffffffffffffffffffff82169050919050565b610bb581610b96565b8114610bc057600080fd5b50565b600081519050610bd281610bac565b92915050565b6000819050919050565b610beb81610bd8565b8114610bf657600080fd5b50565b600081519050610c0881610be2565b92915050565b600081519050610c1d81610807565b92915050565b600080600080600060a08688031215610c3f57610c3e610743565b5b6000610c4d88828901610bc3565b9550506020610c5e88828901610bf9565b9450506040610c6f88828901610c0e565b9350506060610c8088828901610c0e565b9250506080610c9188828901610bc3565b9150509295509295909350565b6000610ca982610bd8565b9150610cb483610bd8565b9250828202610cc281610bd8565b91507f80000000000000000000000000000000000000000000000000000000000000008414600084121615610cfa57610cf9610981565b5b8282058414831517610d0f57610d0e610981565b5b509291505056fea2646970667358221220518c9881f3c52033d007862982cdb874c9cda2b3ddb46f455e58634dfa1ed1af64736f6c634300081c0033",
  "devdoc": {
    "kind": "dev",
    "methods": {},
    "version": 1
  },
  "userdoc": {
    "kind": "user",
    "methods": {},
    "version": 1
  },
  "storageLayout": {
    "storage": [
      {
        "astId": 111,
        "contract": "contracts/fundme.sol:FundMe",
        "label": "s_addressToAmountFunded",
        "offset": 0,
        "slot": "0",
        "type": "t_mapping(t_address,t_uint256)"
      },
      {
        "astId": 114,
        "contract": "contracts/fundme.sol:FundMe",
        "label": "s_funders",
        "offset": 0,
        "slot": "1",
        "type": "t_array(t_address)dyn_storage"
      },
      {
        "astId": 116,
        "contract": "contracts/fundme.sol:FundMe",
        "label": "i_owner",
        "offset": 0,
        "slot": "2",
        "type": "t_address"
      },
      {
        "astId": 126,
        "contract": "contracts/fundme.sol:FundMe",
        "label": "s_pricefeed",
        "offset": 0,
        "slot": "3",
        "type": "t_contract(AggregatorV3Interface)45"
      }
    ],
    "types": {
      "t_address": {
        "encoding": "inplace",
        "label": "address",
        "numberOfBytes": "20"
      },
      "t_array(t_address)dyn_storage": {
        "base": "t_address",
        "encoding": "dynamic_array",
        "label": "address[]",
        "numberOfBytes": "32"
      },
      "t_contract(AggregatorV3Interface)45": {
        "encoding": "inplace",
        "label": "contract AggregatorV3Interface",
        "numberOfBytes": "20"
      },
      "t_mapping(t_address,t_uint256)": {
        "encoding": "mapping",
        "key": "t_address",
        "label": "mapping(address => uint256)",
        "numberOfBytes": "32",
        "value": "t_uint256"
      },
      "t_uint256": {
        "encoding": "inplace",
        "label": "uint256",
        "numberOfBytes": "32"
      }
    }
  }
}